{
  "contractName": "myContract",
  "abi": [
    {
      "constant": false,
      "inputs": [
        {
          "name": "n",
          "type": "uint256"
        }
      ],
      "name": "addBet",
      "outputs": [
        {
          "name": "",
          "type": "uint256"
        }
      ],
      "payable": false,
      "stateMutability": "nonpayable",
      "type": "function"
    },
    {
      "constant": false,
      "inputs": [
        {
          "name": "n",
          "type": "uint256"
        },
        {
          "name": "index",
          "type": "uint256"
        }
      ],
      "name": "modifyBet",
      "outputs": [
        {
          "name": "",
          "type": "uint256"
        },
        {
          "name": "",
          "type": "uint256"
        },
        {
          "name": "",
          "type": "uint256"
        }
      ],
      "payable": false,
      "stateMutability": "nonpayable",
      "type": "function"
    }
  ],
  "bytecode": "0x6060604052341561000f57600080fd5b61029f8061001e6000396000f30060606040526004361061004c576000357c0100000000000000000000000000000000000000000000000000000000900463ffffffff1680639f12fde014610051578063cdaba7861461009f575b600080fd5b341561005c57600080fd5b61007b60048080359060200190919080359060200190919050506100d6565b60405180848152602001838152602001828152602001935050505060405180910390f35b34156100aa57600080fd5b6100c060048080359060200190919050506100e2565b6040518082815260200191505060405180910390f35b60008060009250925092565b60006100ec61020c565b828160000181815250506000803373ffffffffffffffffffffffffffffffffffffffff1673ffffffffffffffffffffffffffffffffffffffff16815260200190815260200160002080548060010182816101469190610220565b91600052602060002090016000839091909150600082015181600001555050506000803373ffffffffffffffffffffffffffffffffffffffff1673ffffffffffffffffffffffffffffffffffffffff16815260200190815260200160002060016000803373ffffffffffffffffffffffffffffffffffffffff1673ffffffffffffffffffffffffffffffffffffffff16815260200190815260200160002080549050038154811015156101f557fe5b906000526020600020900160000154915050919050565b602060405190810160405280600081525090565b81548183558181151161024757818360005260206000209182019101610246919061024c565b5b505050565b61027091905b8082111561026c5760008082016000905550600101610252565b5090565b905600a165627a7a7230582043b4d7a81268c652b43c99895a8dd4e505716e2166a98e6526d85c67c7a064bf0029",
  "source": "pragma solidity ^0.4.0;\n\ncontract myContract\n{\n\n// a structure that stores bets\n\nstruct Bets{\n    uint betNum; // some int number\n}\n\nmapping(address => Bets[]) myBetMapping;\n\nfunction addBet(uint n) returns(uint)\n{\n    Bets memory l;\n    l.betNum = n;\n    myBetMapping[msg.sender].push(l);\n\n   //check the last bet is added or not\n\n   return myBetMapping[msg.sender][myBetMapping[msg.sender].length -1].betNum;\n\n}\n\n// lets modify the mapping and the array\n\nfunction modifyBet(uint n, uint index) returns(uint,uint,uint)\n{\n    /*\n    Bets memory l;\n    l.betNum = n;\n\n    add new bet\n\n    myBetMapping[msg.sender].push(l);\n    return myBetMapping[msg.sender][myBetMapping[msg.sender].length -1].betNum;\n    */\n    /*\n    add new bet at index\n\n     delete myBetMapping[msg.sender][index];\n     myBetMapping[msg.sender][index] = l;\n\n     // return the added value\n\n     return myBetMapping[msg.sender][index].betNum;\n    */\n    /*\n    deleting a bet and reducing the length , (index starts from 0)\n\n    //delete the struct \n\n    delete myBetMapping[msg.sender][index];\n\n    for(uint i = index ;i<myBetMapping[msg.sender].length-1; i++)\n    {\n        // shifts value to left\n        myBetMapping[msg.sender][i] =  myBetMapping[msg.sender][i+1];\n\n    }\n\n     //deleting the last value\n     delete myBetMapping[msg.sender][myBetMapping[msg.sender].length-1];\n\n     //reducing the length\n     myBetMapping[msg.sender].length--;\n\n     //checking evrything works fine or not by returning the last value, the second last and the length\n     return (myBetMapping[msg.sender][index].betNum,myBetMapping[msg.sender][myBetMapping[msg.sender].length-1].betNum,myBetMapping[msg.sender].length);\n    */\n}\n}\n",
  "sourcePath": "/home/guillermo/devs/eblockfy-app/truffle/contracts/NewContract.sol",
  "compiler": {
    "name": "solc",
    "version": "0.4.19+commit.c4cbbb05.Emscripten.clang"
  },
  "schemaVersion": "1.0.1",
  "updatedAt": "2018-03-21T18:24:21.705Z"
}