{
  "contractName": "UserCertificates",
  "abi": [
    {
      "constant": true,
      "inputs": [
        {
          "name": "",
          "type": "address"
        }
      ],
      "name": "certificates",
      "outputs": [
        {
          "name": "",
          "type": "string"
        }
      ],
      "payable": false,
      "stateMutability": "view",
      "type": "function"
    },
    {
      "constant": false,
      "inputs": [
        {
          "name": "ipfsHash",
          "type": "string"
        }
      ],
      "name": "addCertificate",
      "outputs": [],
      "payable": true,
      "stateMutability": "payable",
      "type": "function"
    }
  ],
  "bytecode": "0x6060604052341561000f57600080fd5b61032c8061001e6000396000f30060606040526004361061004b576000357c0100000000000000000000000000000000000000000000000000000000900463ffffffff16806216e526146100505780630a99e4f814610102575b600080fd5b341561005b57600080fd5b610087600480803573ffffffffffffffffffffffffffffffffffffffff16906020019091905050610154565b6040518080602001828103825283818151815260200191508051906020019080838360005b838110156100c75780820151818401526020810190506100ac565b50505050905090810190601f1680156100f45780820380516001836020036101000a031916815260200191505b509250505060405180910390f35b610152600480803590602001908201803590602001908080601f01602080910402602001604051908101604052809392919081815260200183838082843782019150505050505091905050610204565b005b60016020528060005260406000206000915090508054600181600116156101000203166002900480601f0160208091040260200160405190810160405280929190818152602001828054600181600116156101000203166002900480156101fc5780601f106101d1576101008083540402835291602001916101fc565b820191906000526020600020905b8154815290600101906020018083116101df57829003601f168201915b505050505081565b80600160003373ffffffffffffffffffffffffffffffffffffffff1673ffffffffffffffffffffffffffffffffffffffff168152602001908152602001600020908051906020019061025792919061025b565b5050565b828054600181600116156101000203166002900490600052602060002090601f016020900481019282601f1061029c57805160ff19168380011785556102ca565b828001600101855582156102ca579182015b828111156102c95782518255916020019190600101906102ae565b5b5090506102d791906102db565b5090565b6102fd91905b808211156102f95760008160009055506001016102e1565b5090565b905600a165627a7a72305820379cd6e329d06d28600b6dafe81b12128a55445a92a4ae8196fa0f54ebb534bd0029",
  "source": "pragma solidity ^0.4.4;\n\ncontract UserCertificates {\n\taddress private owner;\n\tmapping (address => string) public certificates;\n\n\tfunction addCertificate(string ipfsHash) public\tpayable {\n\t\tcertificates[msg.sender] = ipfsHash;\n\t}\n}",
  "sourcePath": "/home/guillermo/devs/certifications-app/truffle/contracts/UserCertificates.sol",
  "compiler": {
    "name": "solc",
    "version": "0.4.19+commit.c4cbbb05.Emscripten.clang"
  },
  "schemaVersion": "1.0.1",
  "updatedAt": "2018-02-02T09:43:05.719Z"
}