{
  "contractName": "UserCertificates",
  "abi": [
    {
      "constant": false,
      "inputs": [
        {
          "name": "idCertificate",
          "type": "bytes32"
        }
      ],
      "name": "addCertificate",
      "outputs": [],
      "payable": false,
      "stateMutability": "nonpayable",
      "type": "function"
    },
    {
      "constant": true,
      "inputs": [
        {
          "name": "idCertificate",
          "type": "bytes32"
        }
      ],
      "name": "getCertificate",
      "outputs": [
        {
          "name": "",
          "type": "bool"
        }
      ],
      "payable": false,
      "stateMutability": "view",
      "type": "function"
    },
    {
      "constant": true,
      "inputs": [
        {
          "name": "idCertificate",
          "type": "bytes32"
        }
      ],
      "name": "getSender",
      "outputs": [
        {
          "name": "",
          "type": "address"
        }
      ],
      "payable": false,
      "stateMutability": "view",
      "type": "function"
    }
  ],
  "bytecode": "0x608060405234801561001057600080fd5b5061029a806100206000396000f300608060405260043610610057576000357c0100000000000000000000000000000000000000000000000000000000900463ffffffff16806303d2107f1461005c578063750f9f87146100cd578063f333fe08146100fe575b600080fd5b34801561006857600080fd5b5061008b6004803603810190808035600019169060200190929190505050610147565b604051808273ffffffffffffffffffffffffffffffffffffffff1673ffffffffffffffffffffffffffffffffffffffff16815260200191505060405180910390f35b3480156100d957600080fd5b506100fc600480360381019080803560001916906020019092919050505061018c565b005b34801561010a57600080fd5b5061012d60048036038101908080356000191690602001909291905050506101e9565b604051808215151515815260200191505060405180910390f35b600060016000836000191660001916815260200190815260200160002060009054906101000a900473ffffffffffffffffffffffffffffffffffffffff169050919050565b3360016000836000191660001916815260200190815260200160002060006101000a81548173ffffffffffffffffffffffffffffffffffffffff021916908373ffffffffffffffffffffffffffffffffffffffff16021790555050565b60008073ffffffffffffffffffffffffffffffffffffffff1660016000846000191660001916815260200190815260200160002060009054906101000a900473ffffffffffffffffffffffffffffffffffffffff1673ffffffffffffffffffffffffffffffffffffffff161415156102645760019050610269565b600090505b9190505600a165627a7a72305820522968c33ada74f64d1c12163f4ef599fe81923fa2937c19356506d3ddafa7d80029",
  "source": "pragma solidity ^0.4.20;\n\ncontract UserCertificates {\n    address private owner;\n    \n    //bytes32 acepta 64 digitos en hexadecimal\n    mapping (bytes32 => address) certificates; \n\n    function addCertificate(bytes32 idCertificate) public {\n        certificates[idCertificate] = msg.sender;\n    }\n\n    function getCertificate(bytes32 idCertificate) public view returns (bool) {\n        if(certificates[idCertificate] != 0x0000000000000000000000000000000000000000)\n            return true;\n        return false;\n    }\n\n    function getSender(bytes32 idCertificate) public view returns (address) {\n        return certificates[idCertificate];\n    }\n}\n",
  "sourcePath": "/home/diego/devs/e-blockfy/0.2/eblockfy/truffle/contracts/UserCertificates.sol",
  "compiler": {
    "name": "solc",
    "version": "0.4.24+commit.e67f0147.Emscripten.clang"
  },
  "schemaVersion": "2.0.1",
  "updatedAt": "2018-08-02T08:02:57.167Z"
}