{
  "contractName": "UserCertificates",
  "abi": [
    {
      "constant": false,
      "inputs": [
        {
          "name": "ipfsHash",
          "type": "string"
        }
      ],
      "name": "addCertificate",
      "outputs": [],
      "payable": true,
      "stateMutability": "payable",
      "type": "function"
    },
    {
      "constant": true,
      "inputs": [
        {
          "name": "certificate",
          "type": "string"
        }
      ],
      "name": "getCertificate",
      "outputs": [
        {
          "name": "",
          "type": "address"
        }
      ],
      "payable": false,
      "stateMutability": "view",
      "type": "function"
    }
  ],
  "bytecode": "0x6060604052341561000f57600080fd5b6102e28061001e6000396000f30060606040526004361061004c576000357c0100000000000000000000000000000000000000000000000000000000900463ffffffff1680630a99e4f814610051578063ed0f2e75146100a3575b600080fd5b6100a1600480803590602001908201803590602001908080601f01602080910402602001604051908101604052809392919081815260200183838082843782019150505050505091905050610140565b005b34156100ae57600080fd5b6100fe600480803590602001908201803590602001908080601f0160208091040260200160405190810160405280939291908181526020018383808284378201915050505050509190505061021e565b604051808273ffffffffffffffffffffffffffffffffffffffff1673ffffffffffffffffffffffffffffffffffffffff16815260200191505060405180910390f35b6020604051908101604052803373ffffffffffffffffffffffffffffffffffffffff168152506001826040518082805190602001908083835b60208310151561019e5780518252602082019150602081019050602083039250610179565b6001836020036101000a038019825116818451168082178552505050505050905001915050908152602001604051809103902060008201518160000160006101000a81548173ffffffffffffffffffffffffffffffffffffffff021916908373ffffffffffffffffffffffffffffffffffffffff16021790555090505050565b60006001826040518082805190602001908083835b6020831015156102585780518252602082019150602081019050602083039250610233565b6001836020036101000a038019825116818451168082178552505050505050905001915050908152602001604051809103902060000160009054906101000a900473ffffffffffffffffffffffffffffffffffffffff1690509190505600a165627a7a72305820ee9e34a5da390c66e99fd5c6d2b8e59806a1d1bec6539b48417dad40fb9f37b60029",
  "source": "pragma solidity ^0.4.16;\n\ncontract UserCertificates {\n\taddress private owner;\n\n\tstruct Person {\n\t\taddress direction;\n\t}\n\n\tmapping (string => Person) certificates;\n\n\tfunction addCertificate(string ipfsHash) public payable {\n\t\tcertificates[ipfsHash] = Person({direction:msg.sender});\n\t}\n\n\tfunction getCertificate(string certificate) constant returns (address) {\n\t\treturn certificates[certificate].direction;\n\t}\n}",
  "sourcePath": "/home/guillermo/devs/eblockfy-app/truffle/contracts/UserCertificates.sol",
  "compiler": {
    "name": "solc",
    "version": "0.4.19+commit.c4cbbb05.Emscripten.clang"
  },
  "schemaVersion": "1.0.1",
  "updatedAt": "2018-03-21T18:24:21.707Z"
}