{
  "contractName": "UserCertificates",
  "abi": [
    {
      "constant": false,
      "inputs": [
        {
          "name": "dniUser",
          "type": "bytes32"
        },
        {
          "name": "certificateHash",
          "type": "bytes32"
        }
      ],
      "name": "addCertificate",
      "outputs": [],
      "payable": false,
      "stateMutability": "nonpayable",
      "type": "function"
    },
    {
      "constant": true,
      "inputs": [
        {
          "name": "dni",
          "type": "bytes32"
        }
      ],
      "name": "getCertifications",
      "outputs": [
        {
          "name": "",
          "type": "bytes32[]"
        }
      ],
      "payable": false,
      "stateMutability": "view",
      "type": "function"
    }
  ],
  "bytecode": "0x6060604052341561000f57600080fd5b61025b8061001e6000396000f30060606040526004361061004c576000357c0100000000000000000000000000000000000000000000000000000000900463ffffffff16806379dd18c414610051578063cac36ed514610085575b600080fd5b341561005c57600080fd5b61008360048080356000191690602001909190803560001916906020019091905050610101565b005b341561009057600080fd5b6100aa60048080356000191690602001909190505061014d565b6040518080602001828103825283818151815260200191508051906020019060200280838360005b838110156100ed5780820151818401526020810190506100d2565b505050509050019250505060405180910390f35b600160008360001916600019168152602001908152602001600020805480600101828161012e91906101ca565b9160005260206000209001600083909190915090600019169055505050565b6101556101f6565b6001600083600019166000191681526020019081526020016000208054806020026020016040519081016040528092919081815260200182805480156101be57602002820191906000526020600020905b815460001916815260200190600101908083116101a6575b50505050509050919050565b8154818355818115116101f1578183600052602060002091820191016101f0919061020a565b5b505050565b602060405190810160405280600081525090565b61022c91905b80821115610228576000816000905550600101610210565b5090565b905600a165627a7a72305820e43345bea9aef99ca026a17ec4355efc25cf4263d2f85ca9d3671541d92d89ab0029",
  "source": "pragma solidity ^0.4.19;\n\ncontract UserCertificates {\n\taddress private owner;\n\n\tmapping (bytes32 => bytes32[]) certificates;\n\n\tfunction addCertificate(bytes32 dniUser, bytes32 certificateHash) public {\n\t\tcertificates[dniUser].push(certificateHash);\n\t}\n\n\tfunction getCertifications(bytes32 dni) public constant returns (bytes32[]) {\n\t\treturn certificates[dni];\n\t}\n}",
  "sourcePath": "/home/guillermo/devs/eblockfy-app/truffle/contracts/UserCertificates.sol",
  "compiler": {
    "name": "solc",
    "version": "0.4.19+commit.c4cbbb05.Emscripten.clang"
  },
  "schemaVersion": "1.0.1",
  "updatedAt": "2018-04-02T11:03:44.674Z"
}