{
  "contractName": "LogicCertificate",
  "abi": [
    {
      "inputs": [
        {
          "name": "_userCertificatesAddress",
          "type": "address"
        },
        {
          "name": "_priceInWei",
          "type": "uint256"
        }
      ],
      "payable": false,
      "stateMutability": "nonpayable",
      "type": "constructor"
    },
    {
      "constant": false,
      "inputs": [
        {
          "name": "_newOwner",
          "type": "address"
        }
      ],
      "name": "setOwner",
      "outputs": [],
      "payable": false,
      "stateMutability": "nonpayable",
      "type": "function"
    },
    {
      "constant": true,
      "inputs": [],
      "name": "getOwner",
      "outputs": [
        {
          "name": "",
          "type": "address"
        }
      ],
      "payable": false,
      "stateMutability": "view",
      "type": "function"
    },
    {
      "constant": false,
      "inputs": [
        {
          "name": "_priceInWei",
          "type": "uint256"
        }
      ],
      "name": "setPrice",
      "outputs": [],
      "payable": false,
      "stateMutability": "nonpayable",
      "type": "function"
    },
    {
      "constant": true,
      "inputs": [],
      "name": "getPriceInWei",
      "outputs": [
        {
          "name": "",
          "type": "uint256"
        }
      ],
      "payable": false,
      "stateMutability": "view",
      "type": "function"
    },
    {
      "constant": false,
      "inputs": [
        {
          "name": "_idCertificate",
          "type": "bytes32"
        }
      ],
      "name": "addCertificate",
      "outputs": [],
      "payable": true,
      "stateMutability": "payable",
      "type": "function"
    },
    {
      "constant": true,
      "inputs": [
        {
          "name": "_idCertificate",
          "type": "bytes32"
        }
      ],
      "name": "getCertificateSender",
      "outputs": [
        {
          "name": "",
          "type": "address"
        }
      ],
      "payable": false,
      "stateMutability": "view",
      "type": "function"
    },
    {
      "constant": true,
      "inputs": [
        {
          "name": "_idCertificate",
          "type": "bytes32"
        }
      ],
      "name": "isMyCertificate",
      "outputs": [
        {
          "name": "",
          "type": "bool"
        }
      ],
      "payable": false,
      "stateMutability": "view",
      "type": "function"
    },
    {
      "constant": false,
      "inputs": [
        {
          "name": "_idCertificate",
          "type": "bytes32"
        }
      ],
      "name": "deleteCertificate",
      "outputs": [],
      "payable": false,
      "stateMutability": "nonpayable",
      "type": "function"
    }
  ],
  "bytecode": "0x608060405234801561001057600080fd5b5060405160408061099d8339810180604052810190808051906020019092919080519060200190929190505050336000806101000a81548173ffffffffffffffffffffffffffffffffffffffff021916908373ffffffffffffffffffffffffffffffffffffffff16021790555081600260006101000a81548173ffffffffffffffffffffffffffffffffffffffff021916908373ffffffffffffffffffffffffffffffffffffffff1602179055508060018190555050506108c7806100d66000396000f30060806040526004361061008e576000357c0100000000000000000000000000000000000000000000000000000000900463ffffffff16806313af4035146100935780631a1e5601146100d6578063750f9f871461014757806378097d181461016b578063893d20e81461019c57806391b7f5ed146101f3578063d57e57e314610220578063fc50465514610269575b600080fd5b34801561009f57600080fd5b506100d4600480360381019080803573ffffffffffffffffffffffffffffffffffffffff169060200190929190505050610294565b005b3480156100e257600080fd5b506101056004803603810190808035600019169060200190929190505050610332565b604051808273ffffffffffffffffffffffffffffffffffffffff1673ffffffffffffffffffffffffffffffffffffffff16815260200191505060405180910390f35b610169600480360381019080803560001916906020019092919050505061040f565b005b34801561017757600080fd5b5061019a600480360381019080803560001916906020019092919050505061060e565b005b3480156101a857600080fd5b506101b16106f7565b604051808273ffffffffffffffffffffffffffffffffffffffff1673ffffffffffffffffffffffffffffffffffffffff16815260200191505060405180910390f35b3480156101ff57600080fd5b5061021e60048036038101908080359060200190929190505050610720565b005b34801561022c57600080fd5b5061024f6004803603810190808035600019169060200190929190505050610785565b604051808215151515815260200191505060405180910390f35b34801561027557600080fd5b5061027e610891565b6040518082815260200191505060405180910390f35b6000809054906101000a900473ffffffffffffffffffffffffffffffffffffffff1673ffffffffffffffffffffffffffffffffffffffff163373ffffffffffffffffffffffffffffffffffffffff161415156102ef57600080fd5b806000806101000a81548173ffffffffffffffffffffffffffffffffffffffff021916908373ffffffffffffffffffffffffffffffffffffffff16021790555050565b6000600260009054906101000a900473ffffffffffffffffffffffffffffffffffffffff1673ffffffffffffffffffffffffffffffffffffffff16631a1e5601836040518263ffffffff167c0100000000000000000000000000000000000000000000000000000000028152600401808260001916600019168152602001915050602060405180830381600087803b1580156103cd57600080fd5b505af11580156103e1573d6000803e3d6000fd5b505050506040513d60208110156103f757600080fd5b81019080805190602001909291905050509050919050565b6001543414151561041f57600080fd5b600260009054906101000a900473ffffffffffffffffffffffffffffffffffffffff1673ffffffffffffffffffffffffffffffffffffffff1663893d20e86040518163ffffffff167c0100000000000000000000000000000000000000000000000000000000028152600401602060405180830381600087803b1580156104a557600080fd5b505af11580156104b9573d6000803e3d6000fd5b505050506040513d60208110156104cf57600080fd5b810190808051906020019092919050505073ffffffffffffffffffffffffffffffffffffffff166108fc349081150290604051600060405180830381858888f19350505050158015610525573d6000803e3d6000fd5b50600260009054906101000a900473ffffffffffffffffffffffffffffffffffffffff1673ffffffffffffffffffffffffffffffffffffffff16631ab807f882336040518363ffffffff167c01000000000000000000000000000000000000000000000000000000000281526004018083600019166000191681526020018273ffffffffffffffffffffffffffffffffffffffff1673ffffffffffffffffffffffffffffffffffffffff16815260200192505050600060405180830381600087803b1580156105f357600080fd5b505af1158015610607573d6000803e3d6000fd5b5050505050565b600260009054906101000a900473ffffffffffffffffffffffffffffffffffffffff1673ffffffffffffffffffffffffffffffffffffffff16631ab807f88260006040518363ffffffff167c01000000000000000000000000000000000000000000000000000000000281526004018083600019166000191681526020018273ffffffffffffffffffffffffffffffffffffffff1673ffffffffffffffffffffffffffffffffffffffff16815260200192505050600060405180830381600087803b1580156106dc57600080fd5b505af11580156106f0573d6000803e3d6000fd5b5050505050565b60008060009054906101000a900473ffffffffffffffffffffffffffffffffffffffff16905090565b6000809054906101000a900473ffffffffffffffffffffffffffffffffffffffff1673ffffffffffffffffffffffffffffffffffffffff163373ffffffffffffffffffffffffffffffffffffffff1614151561077b57600080fd5b8060018190555050565b60008073ffffffffffffffffffffffffffffffffffffffff16600260009054906101000a900473ffffffffffffffffffffffffffffffffffffffff1673ffffffffffffffffffffffffffffffffffffffff16631a1e5601846040518263ffffffff167c0100000000000000000000000000000000000000000000000000000000028152600401808260001916600019168152602001915050602060405180830381600087803b15801561083757600080fd5b505af115801561084b573d6000803e3d6000fd5b505050506040513d602081101561086157600080fd5b810190808051906020019092919050505073ffffffffffffffffffffffffffffffffffffffff1614159050919050565b60006001549050905600a165627a7a723058205511263789c0b4589bf5c614f660c4b30eee4eb19aebbdc3029f875b90ec16740029",
  "source": "pragma solidity 0.4.24;\n\n/// @title Logica de Eblockfy.\n/// @author jdiegosierra@blocknitive.com\n\nimport \"./UserCertificates.sol\";\n\ncontract LogicCertificate {\n    \n    address private owner;\n    uint256 private priceInWei;\n    UserCertificates userCertificates;\n    \n    modifier onlyOwner() {\n        require(msg.sender == owner);\n        _;\n    }\n    \n    constructor(address _userCertificatesAddress, uint256  _priceInWei) public {\n        owner = msg.sender;\n        userCertificates = UserCertificates(_userCertificatesAddress);\n        priceInWei = _priceInWei;\n    }\n    \n    /// @notice Cambia la direccion del propietario del contrato.\n    /// @dev Solo el propietario puede realizar esta acci贸n.\n    /// @param _newOwner La direccion del nuevo propietario.\n    function setOwner(address _newOwner) public onlyOwner {\n        owner = _newOwner;\n    }\n    \n    /// @notice Devuelve el propietario del contrato.\n    /// @return address La direccion del propietario.\n    function getOwner() public view returns(address) {\n        return owner;\n    }\n\n    /// @notice Cambia la el precio que recibe el propietario al guardar un certificado.\n    /// @dev Solo el propietario puede realizar esta acci贸n.\n    /// @param _priceInWei El precio en Wei.\n    function setPrice(uint256 _priceInWei) public onlyOwner {\n        priceInWei = _priceInWei;\n    }\n    \n    /// @notice Devuelve el precio en Wei que recibe el propietario  lguardar un certificado.\n    /// @return uint256 El precio en Wei.\n    function getPriceInWei() public view returns (uint256) {\n        return priceInWei;\n    }\n    \n    /// @notice Guarda un certificado en la blockchain. Para saber cual es el precio por guardar el certificado, llamar a getPriceInWei().\n    /// @dev Es necesario que este contrato tenga permisos en UserCertificates.sol.\n    /// @param _idCertificate La clave del certificado.    \n    function addCertificate(bytes32 _idCertificate) public payable {\n        require(msg.value == priceInWei);\n        userCertificates.getOwner().transfer(msg.value);\n        userCertificates.addCertificate(_idCertificate, msg.sender);\n    }\n\n    /// @notice Devuelve la direccion asociada con el certificado.\n    /// @dev Es necesario que este contrato tenga permisos en UserCertificates.sol.\n    /// @param _idCertificate La clave del certificado.\n    /// @return uint256 El precio en Wei.\n    function getCertificateSender(bytes32 _idCertificate) public view returns(address) {\n        return userCertificates.getCertificateSender(_idCertificate);\n    }\n\n    /// @notice Devuelve la direccion asociada con el certificado.\n    /// @dev Es necesario que este contrato tenga permisos en UserCertificates.sol.\n    /// @param _idCertificate La clave del certificado.\n    /// @return uint256 El precio en Wei.\n    function isMyCertificate(bytes32 _idCertificate) public view returns(bool) {\n        return (userCertificates.getCertificateSender(_idCertificate) != address(0x0));\n    }\n    \n    /// @notice Borra un certificado de la blockchain.\n    /// @dev Es necesario que este contrato tenga permisos en UserCertificates.sol.\n    /// @param _idCertificate La clave del certificado.\n    function deleteCertificate(bytes32 _idCertificate) public {\n        userCertificates.addCertificate(_idCertificate, address(0x0));\n    }\n}\n",
  "sourcePath": "/home/diego/Programas/eblockfy-app/contracts/LogicCertificate.sol",
  "compiler": {
    "name": "solc",
    "version": "0.4.24+commit.e67f0147.Emscripten.clang"
  },
  "schemaVersion": "2.0.1",
  "updatedAt": "2018-08-23T11:43:59.142Z"
}