{
  "contractName": "UserCertificates",
  "abi": [
    {
      "inputs": [],
      "payable": false,
      "stateMutability": "nonpayable",
      "type": "constructor"
    },
    {
      "constant": false,
      "inputs": [
        {
          "name": "_newOwner",
          "type": "address"
        }
      ],
      "name": "setOwner",
      "outputs": [],
      "payable": false,
      "stateMutability": "nonpayable",
      "type": "function"
    },
    {
      "constant": true,
      "inputs": [],
      "name": "getOwner",
      "outputs": [
        {
          "name": "",
          "type": "address"
        }
      ],
      "payable": false,
      "stateMutability": "view",
      "type": "function"
    },
    {
      "constant": false,
      "inputs": [
        {
          "name": "_logicContract",
          "type": "address"
        }
      ],
      "name": "setLogicContract",
      "outputs": [],
      "payable": false,
      "stateMutability": "nonpayable",
      "type": "function"
    },
    {
      "constant": true,
      "inputs": [],
      "name": "getLogicContract",
      "outputs": [
        {
          "name": "",
          "type": "address"
        }
      ],
      "payable": false,
      "stateMutability": "view",
      "type": "function"
    },
    {
      "constant": false,
      "inputs": [
        {
          "name": "_idCertificate",
          "type": "bytes32"
        },
        {
          "name": "_sender",
          "type": "address"
        }
      ],
      "name": "addCertificate",
      "outputs": [],
      "payable": false,
      "stateMutability": "nonpayable",
      "type": "function"
    },
    {
      "constant": true,
      "inputs": [
        {
          "name": "_idCertificate",
          "type": "bytes32"
        }
      ],
      "name": "getCertificateSender",
      "outputs": [
        {
          "name": "",
          "type": "address"
        }
      ],
      "payable": false,
      "stateMutability": "view",
      "type": "function"
    }
  ],
  "bytecode": "0x608060405234801561001057600080fd5b5033600160006101000a81548173ffffffffffffffffffffffffffffffffffffffff021916908373ffffffffffffffffffffffffffffffffffffffff16021790555061058c806100616000396000f300608060405260043610610078576000357c0100000000000000000000000000000000000000000000000000000000900463ffffffff16806313af40351461007d5780631a1e5601146100c05780631ab807f8146101315780635aa4470f14610182578063893d20e8146101c55780638b18c7e31461021c575b600080fd5b34801561008957600080fd5b506100be600480360381019080803573ffffffffffffffffffffffffffffffffffffffff169060200190929190505050610273565b005b3480156100cc57600080fd5b506100ef6004803603810190808035600019169060200190929190505050610313565b604051808273ffffffffffffffffffffffffffffffffffffffff1673ffffffffffffffffffffffffffffffffffffffff16815260200191505060405180910390f35b34801561013d57600080fd5b506101806004803603810190808035600019169060200190929190803573ffffffffffffffffffffffffffffffffffffffff1690602001909291905050506103b3565b005b34801561018e57600080fd5b506101c3600480360381019080803573ffffffffffffffffffffffffffffffffffffffff16906020019092919050505061046c565b005b3480156101d157600080fd5b506101da61050c565b604051808273ffffffffffffffffffffffffffffffffffffffff1673ffffffffffffffffffffffffffffffffffffffff16815260200191505060405180910390f35b34801561022857600080fd5b50610231610536565b604051808273ffffffffffffffffffffffffffffffffffffffff1673ffffffffffffffffffffffffffffffffffffffff16815260200191505060405180910390f35b600160009054906101000a900473ffffffffffffffffffffffffffffffffffffffff1673ffffffffffffffffffffffffffffffffffffffff163373ffffffffffffffffffffffffffffffffffffffff161415156102cf57600080fd5b80600160006101000a81548173ffffffffffffffffffffffffffffffffffffffff021916908373ffffffffffffffffffffffffffffffffffffffff16021790555050565b6000600260009054906101000a900473ffffffffffffffffffffffffffffffffffffffff1673ffffffffffffffffffffffffffffffffffffffff163373ffffffffffffffffffffffffffffffffffffffff1614151561037157600080fd5b600080836000191660001916815260200190815260200160002060009054906101000a900473ffffffffffffffffffffffffffffffffffffffff169050919050565b600260009054906101000a900473ffffffffffffffffffffffffffffffffffffffff1673ffffffffffffffffffffffffffffffffffffffff163373ffffffffffffffffffffffffffffffffffffffff1614151561040f57600080fd5b80600080846000191660001916815260200190815260200160002060006101000a81548173ffffffffffffffffffffffffffffffffffffffff021916908373ffffffffffffffffffffffffffffffffffffffff1602179055505050565b600160009054906101000a900473ffffffffffffffffffffffffffffffffffffffff1673ffffffffffffffffffffffffffffffffffffffff163373ffffffffffffffffffffffffffffffffffffffff161415156104c857600080fd5b80600260006101000a81548173ffffffffffffffffffffffffffffffffffffffff021916908373ffffffffffffffffffffffffffffffffffffffff16021790555050565b6000600160009054906101000a900473ffffffffffffffffffffffffffffffffffffffff16905090565b6000600260009054906101000a900473ffffffffffffffffffffffffffffffffffffffff169050905600a165627a7a7230582060cd0a6937c7dd86872e8a49005c565e8b18f9e2ce5a197de6cc384980c696b70029",
  "source": "pragma solidity 0.4.24;\n\n/// @title Almacenamiento de certificados de Eblockfy.\n/// @author jdiegosierra@blocknitive.com\n\ncontract UserCertificates {\n    \n    mapping (bytes32 => address) private certificates;\n    address private owner;\n    address private logicContract;\n    \n    modifier onlyOwner() {\n        require(msg.sender == owner);\n        _;\n    }\n\n    modifier onlyLogicContract() {\n        require(msg.sender == logicContract);\n        _;\n    }\n\n    constructor() public {\n        owner = msg.sender;\n    }\n    \n    /// @notice Cambia la direccion del propietario del contrato.\n    /// @dev Solo el propietario puede realizar esta accion.\n    /// @param _newOwner La direccion del nuevo propietario.\n    function setOwner(address _newOwner) public onlyOwner {\n        owner = _newOwner;\n    }\n    \n    /// @notice Devuelve el propietario del contrato.\n    /// @return address La direccion del propietario.\n    function getOwner() public view returns(address) {\n        return owner;\n    }\n    \n    /// @notice Permite a una direccion almacenar certificados.\n    /// @dev Solo el propietario puede realizar esta accion.\n    /// @param _logicContract La direccion que podra almacenar certificados.\n    function setLogicContract(address _logicContract) public onlyOwner {\n        logicContract = _logicContract;\n    }\n    \n    /// @notice Devuelve la direccion que tiene permisos para almacenar certificados.\n    /// @return address La direccion que tiene permisos para almacenar certificados.\n    function getLogicContract() public view returns(address) {\n        return logicContract;\n    }\n    \n    /// @notice Permite almacenar certificados.\n    /// @dev Solo la direccion con permisos podra realizar esta accion.\n    /// @param _idCertificate La clave del certificado.\n    /// @param _sender La direccion asociada a esa clave.   \n    function addCertificate(bytes32 _idCertificate, address _sender) public onlyLogicContract {\n        certificates[_idCertificate] = _sender;\n    }\n\n    /// @notice Devuelve la direccion asociada al certificado.\n    /// @dev Solo la direccion con permisos podra realizar esta accion.\n    /// @param _idCertificate La clave del certificado.\n    /// @return address La direccion asociada al certificado.   \n    function getCertificateSender(bytes32 _idCertificate) public view onlyLogicContract returns(address) {\n        return certificates[_idCertificate];\n    }\n}\n\n\n",
  "sourcePath": "/home/diego/Programas/eblockfy-app/contracts/UserCertificates.sol",
  "compiler": {
    "name": "solc",
    "version": "0.4.24+commit.e67f0147.Emscripten.clang"
  },
  "schemaVersion": "2.0.1",
  "updatedAt": "2018-08-23T11:47:39.602Z"
}